:020000040800F2
:1000000000280020E9010008390200083902000830
:100010003902000839020008390200080000000017
:10002000000000000000000000000000390200088D
:1000300039020008000000003902000839020008F7
:1000400039020008390200083902000839020008A4
:100050003902000839020008390200083902000894
:100060003902000839020008390200083902000884
:100070003902000839020008390200083902000874
:100080003902000839020008390200083902000864
:100090003902000839020008390200083902000854
:1000A0003902000839020008390200083902000844
:1000B0003902000839020008390200083902000834
:1000C0003902000839020008390200083902000824
:1000D0003902000839020008390200083902000814
:1000E0003902000839020008000000003902000847
:1000F00039020008390200083902000839020008F4
:1001000039020008390200083902000839020008E3
:1001100039020008390200083902000839020008D3
:1001200039020008390200083902000839020008C3
:1001300010B5054C237833B9044B13B10448AFF321
:1001400000800123237010BD00000020000000008B
:100150008402000808B5034B1BB103490348AFF301
:10016000008008BD00000000040000208402000898
:1001700080B483B000AF194B1B68184A43F00403E6
:100180001360174B1B68164A23F470031360144B5B
:100190001B68134A43F400131360124A138843F494
:1001A000005313800023FB8002E0FB880133FB80B7
:1001B000FB8842F20F729342F7D90A4A138823F45C
:1001C000005313800023BB8002E0BB880133BB8057
:1001D000BB8842F20F729342F7D9DEE71810024053
:1001E000040801400C0801400D488546AFF300802B
:1001F0000C480D490D4A002302E0D458C450043382
:10020000C4188C42F9D30A4A0A4C002301E0136057
:100210000432A242FBD300F011F8FFF7A9FFFEE77A
:10022000002800200000002000000020A402000898
:10023000000000201C000020FEE7000070B5002632
:100240000C4D0D4B5B1B9C10A64209D1002600F003
:1002500019F80A4D0A4B5B1B9C10A64205D170BDD4
:1002600055F8043B98470136EEE755F8043B9847AC
:100270000136F2E79C0200089C0200089C0200087C
:10028000A0020008F8B500BFF8BC08BC9E46704745
:0C029000F8B500BFF8BC08BC9E467047E3
:04029C005501000800
:0402A0003101000820
:04000005080001E905
:00000001FF
