:020000040800F2
:10000000F8030020450000084500000845000008EE
:1000100045000008450000084500000800000000F9
:100020000000000000000000000000004500000883
:100030000000000000000000450000084500000826
:100040004500000880B586B000AF00237B61002327
:100050003B611B4B3B611B4B7B611B4A184BD31A0B
:100060009B107B600023FB600AE07A69531C7B6174
:100070003B69591C396112681A60FB680133FB60E7
:10008000FA687B689A42F0D3104B3B61104A0F4BE1
:10009000D31A9B103B600023BB6007E03B695A1CEE
:1000A0003A6100221A60BB680133BB60BA683B68E2
:1000B0009A42F3D300F082F800BF1837BD4680BDE6
:1000C000000000204803000800000020000000207D
:1000D0001000002080B500AF134B1B78022B17D007
:1000E000022B1EDC002B02D0012B0BD019E000F0FC
:1000F0008FF800F04FF80346012B11D10A4B012273
:100100001A700DE000F070F8074B02221A7008E038
:100110004EF6602000F090F8034B00221A7000E0C9
:1001200000BF00BF80BD00BF0000002080B500AF51
:10013000154B1B78022B1CD0022B22DC002B02D08B
:10014000012B07D01DE0114800F0E4F80E4B01220E
:100150001A7016E00D4B1B68132B03DD0C4B0122AC
:100160001A7002E00A4B00221A70074B02221A7022
:1001700007E04FF47A7000F05FF8034B00221A702A
:1001800000BF00BF80BD00BF0400002008000020A9
:100190000500002080B400AF024B1B781846BD4616
:1001A00080BC70470500002080B500AF00F07EF8ED
:1001B00000F0A4F800F00CF800BF80BD80B500AFDF
:1001C000FFF7F2FFFFF786FFFFF7B0FF00BFF9E789
:1001D00080B400AF034B02221A7000BFBD4680BC42
:1001E000704700BF0C00002080B500AF074B1B78A4
:1001F000022B08D1054B01221A70012000F038F8BB
:10020000024B02221A7000BF80BD00BF0C0000200C
:1002100080B500AF074B1B78022B08D1054B00229D
:100220001A70002000F024F8024B02221A7000BF5E
:1002300080BD00BF0C00002080B483B000AF7860A8
:1002400002E07B68013B7B607B68002BF9D100BF3B
:1002500000BF0C37BD4680BC704780B400AF034B75
:100260001B68DBB21846BD4680BC704708080140D9
:1002700080B483B000AF78607B68002B06D10A4B56
:100280001B68094A43F40053136008E07B68012BA4
:1002900005D1054B1B68044A23F40053136000BFCB
:1002A0000C37BD4680BC70470C08014080B400AFDD
:1002B0000F4B1B680E4A43F0040313600D4B1B6881
:1002C0000C4A23F4700313600A4B0A4A1B6813603C
:1002D000094B1B68084A23F470031360064B1B6824
:1002E000054A43F02233136000BFBD4680BC70470F
:1002F00018100240000801400408014080B400AF1B
:10030000034B00221A7000BFBD4680BC704700BF7F
:100310000D00002080B582B000AF7860094B1B78DB
:10032000002B07D1074B01221A70FFF796FF0246F8
:100330007B681A60034B00221A7000BF0837BD4665
:0803400080BD00BF0D0000208C
:0400000508000000EF
:00000001FF
