:020000040800F2
:10000000EC030020450000084500000845000008FA
:1000100045000008450000084500000800000000F9
:100020000000000000000000000000004500000883
:100030000000000000000000450000084500000826
:100040004500000880B586B000AF00237B61002327
:100050003B611B4B3B611B4B7B611B4A184BD31A0B
:100060009B107B600023FB600AE07A69531C7B6174
:100070003B69591C396112681A60FB680133FB60E7
:10008000FA687B689A42F0D3104B3B61104A0F4BE1
:10009000D31A9B103B600023BB6007E03B695A1CEE
:1000A0003A6100221A60BB680133BB60BA683B68E2
:1000B0009A42F3D300F00EF800BF1837BD4680BD5A
:1000C000000000205001000804000020040000206F
:1000D0000400002080B483B000AF194B1B68184A9D
:1000E00043F004031360174B1B68164A23F4700394
:1000F0001360144B1B68134A43F400131360124A35
:10010000138843F4005313800023FB8002E0FB8834
:100110000133FB80FB8842F20F729342F7D90A4AFF
:1001200013886FF34D3313800023BB8002E0BB883C
:100130000133BB80BB8842F20F729342F7D9DEE7EE
:1001400018100240040801400C0801400405060094
:0401500001020300A5
:0400000508000000EF
:00000001FF
