:1000000000040020450000004500000045000000FD
:100010004500000045000000450000000000000011
:10002000000000000000000000000000450000008B
:100030000000000000000000450000004500000036
:100040004500000080B586B000AF00237B6100232F
:100050003B611B4B3B611B4B7B611B4A184BD31A0B
:100060009B107B600023FB600AE07A69531C7B6174
:100070003B69591C396112681A60FB680133FB60E7
:10008000FA687B689A42F0D3104B3B61104A0F4BE1
:10009000D31A9B103B600023BB6007E03B695A1CEE
:1000A0003A6100221A60BB680133BB60BA683B68E2
:1000B0009A42F3D300F00EF800BF1837BD4680BD5A
:1000C000000000206001000000000020000000206F
:1000D0000004002080B485B000AF1D4B20221A60C0
:1000E0000023FB6002E0FB680133FB60FB68C72B69
:1000F000F9D9184B1B68174A43F008031360164BD5
:100100001B68154A43F0080313600023BB6002E03C
:10011000BB680133BB60BB6844F61F629342F7D9EA
:100120000E4B1B680D4A83F00803136000237B60AD
:1001300002E07B6801337B607B6844F61F62934278
:10014000F7D9064B1B68054A83F008031360DCE708
:1001500008E10F40005402401C550240FC5302408D
:00000001FF
