:1000000000040020450000004500000045000000FD
:100010004500000045000000450000000000000011
:10002000000000000000000000000000450000008B
:100030000000000000000000450000004500000036
:100040004500000080B586B000AF00237B6100232F
:100050003B611B4B3B611B4B7B611B4A184BD31A0B
:100060009B107B600023FB600AE07A69531C7B6174
:100070003B69591C396112681A60FB680133FB60E7
:10008000FA687B689A42F0D3104B3B61104A0F4BE1
:10009000D31A9B103B600023BB6007E03B695A1CEE
:1000A0003A6100221A60BB680133BB60BA683B68E2
:1000B0009A42F3D300F00EF800BF1837BD4680BD5A
:1000C000000000205401000000000020000000207B
:1000D0000004002080B483B000AF1B4B20221A60C4
:1000E0001A4B1B68194A43F008031360184B1B682E
:1000F000174A43F00803136000237B6002E07B682B
:1001000001337B607B6844F61F629342F7D9104B42
:100110001B680F4A83F00803136000233B6002E072
:100120003B6801333B603B6844F61F629342F7D95A
:10013000074B1B68064A83F0080313600023184628
:100140000C37BD4680BC704708E10F40FC530240AD
:040150000054024015
:00000001FF
